:020000040800F2
:10000000C00A00204D0200084B280008D72600082F
:1000100049280008C3040008D5310008000000008A
:10002000000000000000000000000000092C000893
:100030008D05000800000000A52A00080B2C000810
:1000400067020008670200086702000867020008EC
:1000500067020008670200086702000867020008DC
:1000600067020008670200086702000867020008CC
:1000700067020008670200086702000867020008BC
:1000800067020008670200086702000867020008AC
:10009000C50400086702000867020008670200083C
:1000A000670200086702000867020008670200088C
:1000B000B52C000867020008670200086702000804
:1000C000670200086702000867020008670200086C
:1000D00067020008C93100086702000867020008CB
:1000E000670200086702000867020008670200084C
:1000F000670200086702000867020008670200083C
:10010000670200086702000867020008670200082B
:10011000670200086702000867020008670200081B
:100120006702000867020008D1040008DD04000827
:1001300067020008670200086702000867020008FB
:1001400067020008670200086702000867020008EB
:1001500067020008670200086702000867020008DB
:1001600067020008670200086702000867020008CB
:10017000670200086702000867020008000000002C
:1001800067020008670200086702000867020008AB
:1001900067020008A92A0008670200086702000831
:1001A00000000000000000006702000800F002F8F4
:1001B00000F03CF80AA090E8000C82448344AAF1C5
:1001C0000107DA4501D100F031F8AFF2090EBAE8C3
:1001D0000F0013F0010F18BFFB1A43F0010318477B
:1001E000D0630000F0630000103A24BF78C878C1E3
:1001F000FAD8520724BF30C830C144BF04680C602D
:10020000704700000023002400250026103A28BF74
:1002100078C1FBD8520728BF30C148BF0B60704778
:100220001FB506F0E6F81FBD10B510BD00F014F9BB
:100230001146FFF7F5FF04F0EFFA00F032F903B4CE
:10024000FFF7F2FF03BC00F035F9000009488047D2
:1002500009480047FEE7FEE7FEE7FEE7FEE7FEE7A8
:10026000FEE7FEE7FEE7FEE704480549054A064BC0
:1002700070470000A52C0008AD010008C004002054
:10028000C00A0020C0060020C006002053EA020C6D
:1002900000F069802DE9F04B4FF00006002B1FBFE6
:1002A000B3FA83F503FA05F424FA05F65E4012BFAB
:1002B0001643B2FA82F502FA05F4C5F120051EBF15
:1002C00022FA05FC44EA0C04203556EA044C4FEAB5
:1002D000144418BF641C4FF000084FF0000990420E
:1002E00071EB030C39D3002919BFB1FA81F701FA78
:1002F00007F6B0FA80F700FA07F6C7F120071EBF2D
:1003000020FA07FC46EA0C062037B6FBF4FCA7EB04
:100310000507103F07F01F0BCBF120060CFA0BFB73
:100320002CFA06F644BFB3460026202FA4BF5E4633
:100330004FF0000B5BEA060C08BF4FF0010B19EB06
:100340000B09ABFB027C48EB0608C01B06FB02CC8A
:100350000BFB03CC71EB0C01C1E70B460246414697
:100360004846BDE8F08B13B54FF000004FF0000198
:10037000AFF30080BDE81C40704710B5203AC0F0D4
:100380000B80B1E81850203AA0E81850B1E8185096
:10039000A0E81850BFF4F5AF5FEA027C24BFB1E8D3
:1003A0001850A0E8185044BF18C918C0BDE8104044
:1003B0005FEA827C24BF51F8043B40F8043B08BF4D
:1003C0007047D20728BF31F8023B48BF11F8012B14
:1003D00028BF20F8023B48BF00F8012B70474FF0C0
:1003E000000200B5134694469646203922BFA0E885
:1003F0000C50A0E80C50B1F12001BFF4F7AF090791
:1004000028BFA0E80C5048BF0CC05DF804EB890081
:1004100028BF40F8042B08BF704748BF20F8022BC4
:1004200011F0804F18BF00F8012B704770477047DC
:10043000704710B500F008F8006810BD10B504460C
:1004400000F002F8046010BD00487047600400200E
:1004500000487047600400207546FFF7F9FFAE467C
:1004600005006946534620F00700854618B020B5C0
:10047000FFF7FAFEBDE820404FF000064FF00007FE
:100480004FF000084FF0000B21F00701AC46ACE83C
:10049000C009ACE8C009ACE8C009ACE8C0098D46A9
:1004A000704710B50446AFF300802046BDE8104009
:1004B000FFF7C5BE01491820ABBEFEE726000200CB
:1004C0007047FEE7014800F002BA000090020020E9
:1004D000014800F057BC000000040020014800F073
:1004E00051BC0000A003002001681823CAB2103AD2
:1004F000B2FBF3F2054B6FF30901032A9B5CC36562
:1005000000D9091D81650846704700001C64000879
:1005100010B5014600208B698A6A4FF0C07453B150
:10052000B3F5005F15D072B1012A0CD0022A0AD0AF
:10053000032A09D104E01AB1012A06D0022A03D104
:10054000C96AC90100D5012010BDC96AA142FAD00B
:1005500010BD002AF7D0012AF2D0022AF3D0032AD4
:10056000F3D010BD30B50468256825F480252560DA
:10057000046863608368402B036803D09960006857
:10058000C26030BD9A600068C16030BD704772B60D
:10059000FEE700000948417811B10021417009E0EF
:1005A000B7EE001A31EE601A21EE000A90ED011A42
:1005B00000EE810A80ED010A704700000000002073
:1005C00090F82020012A07D0022A05D0416A41F480
:1005D0008021416201207047006842690A434261FC
:1005E00000207047F0B590F820500468A468012DF1
:1005F00005D0022D03D0416A41F480214DE014F072
:10060000406F01D1E50045D5C4F301640125A54043
:100610001D608D684FF4C0739DB1CE6835434E6840
:1006200045EAC605066803EB0417F5514FF4C27599
:10063000076805EB04150E697E51097D012905D077
:1006400009E00E88CD6845EA4655EBE701684E594A
:1006500046F480764E511179D2F805504FF4C676A3
:1006600041EA0521056806EB0416A9511178D2F874
:1006700001204FF4C47541EA0221026805EB04151C
:100680005151006803EB0411425842F001024250FC
:100690000020F0BD416A41F4001141620120F0BD2B
:1006A00010B590F82020012A07D0022A05D0416A0F
:1006B00041F480214162012010BD3B48D0F8002266
:1006C00042F00102C0F80022D0F8002222F47C524D
:1006D000C0F80022D0F800224B6A42EA0322C0F898
:1006E00000220A7D02F01F0301229A40D0F81C323A
:1006F0009343C0F81C32CB69B3B9D0F80C329343A2
:10070000C0F80C328C894B6864F31F434C6900EBD2
:10071000C404C4F840320C890B6864F31F434C696D
:1007200000EBC404C4F84432CB69012B16D1D0F8D5
:100730000C321343C0F80C320C884B6864F31F432F
:100740004C6900EBC404C4F840320C89CB6864F3F4
:100750001F434C6900EBC404C4F844328B69002B7E
:10076000D0F804320ED01343C0F804320B69002BCA
:10077000D0F8143208D01343C0F81432096A0129A2
:1007800004D008E09343EFE79343F5E7D0F81C1259
:100790001143C0F81C12D0F8001221F00101C0F87A
:1007A0000012002010BD000000640040704770B5CA
:1007B00090F82040012C05D0022C03D0416A41F46E
:1007C000802128E0046809B32469A40720D04FF4ED
:1007D000D874056804EB01142D5915F004059560D3
:1007E00005682D591AD0ED08556005682C5904F09C
:1007F0000204D4604FF4DA74056804EB01142E5936
:1008000006F00F06082E0CD308250DE0E468DCE79F
:10081000416A41F400114162012070BD6D0D156007
:10082000E3E72D5905F00F05156105682D59C5F34E
:100830000725956105682C59240C54614FF4DC722E
:10084000046802EB0112A4581C700468A458240A1E
:100850005C700468A458240C9C700468A258120EA2
:10086000DA704FF4DE72046802EB0112A4581C71B6
:100870000468A458240A5C710468A458240C9C7170
:100880000468A258120EDA71006829B1016941F0BA
:1008900020010161002070BDC16841F02001C160EC
:1008A000F8E70246002092F82010012901D0022921
:1008B0000CD111688A68520100D501208A681201A2
:1008C00000D5401C8968C90000D5401C70472DE93F
:1008D000F05F0546006800244669D0F804908768F8
:1008E000D0F80CB0D0F810A0D0F81880F10748D09C
:1008F000F90714D001218160B80703D5284600F01C
:10090000E0F90CE0780702D54FF4006407E03807FF
:1009100002D54FF4805402E0284600F0D1F9F805E2
:1009200016D529684FF480708860B80503D528462D
:1009300000F0C9F90CE0780502D544F4005407E052
:10094000380502D544F4804402E0284600F0BAF9A4
:10095000F80316D529684FF480308860B80303D5B2
:10096000284600F0B2F90CE0780302D544F40044C4
:1009700007E0380302D544F4803402E0284600F052
:10098000A3F9300707D55FEACB6004D529681020AA
:1009900044F40074C86070074FF0080707D55FEA99
:1009A0000B7004D52868C760284600F057F9B007D7
:1009B00006D52868C068800702D0284600F04FF9A5
:1009C000700607D55FEACA6004D52968102044F490
:1009D00080640861B00607D55FEA0A7004D528680C
:1009E0000761284600F03DF9F00606D52868006941
:1009F000800702D0284600F035F9B00308D55FEA39
:100A0000C96005D5296810204860284600F02BF9F8
:100A1000F00307D55FEA097004D5286847602846C7
:100A200000F054F9300446D55FEA497040D5F0052E
:100A300004D55FEAC87001D044F00104B00504D5C4
:100A40005FEA887001D544F00204700504D55FEABE
:100A5000487001D544F00404300529D518F0700F12
:100A600026D008F07000402815D006DC102809D0E8
:100A700020280AD0302816D10AE050280ED060284D
:100A800011D10EE044F008040DE044F010040AE037
:100A900044F0200407E044F0400404E044F0800403
:100AA00001E044F480742868816921F0700181615B
:100AB000296804204860002C05D0686A20436862D9
:100AC0002846FFF773FEBDE8F09F70B5040003D021
:100AD00094F8200010B104E0012070BD204600F021
:100AE00081F82068016841F00101016000F0EEFB2F
:100AF0000546052604E000F0E9FB401B0A2811D852
:100B000020684068C007F6D02068016821F0020123
:100B1000016000F0DBFB05460BE000F0D7FB401B5B
:100B20000A2806D9606A40F40030606284F82060C8
:100B3000D2E7206840688007EFD4207E0128206833
:100B400001683DD021F080010160607E01282068AD
:100B5000016838D021F040010160A07E01282068A2
:100B6000016833D021F020010160E07E0128206877
:100B700001682ED041F010010160207F012820681B
:100B8000016829D021F008010160607F01282068F8
:100B9000016824D021F004010160D4E90201084376
:100BA000D4E90412114308436168491E08432168CF
:100BB000C86100206062012084F82000002070BD20
:100BC00041F08001C0E741F04001C5E741F020015C
:100BD000CAE721F01001CFE741F00801D4E741F066
:100BE0000401D9E710B586B0044614216846FFF722
:100BF000F6FB17492068884227D116480021026871
:100C000042F000720260006800F000700590114828
:100C10001038026842F0080202600068022200F008
:100C2000080005900320CDE90210CDE9000209205B
:100C300004906946084800F029FA00221146142061
:100C400000F0B2FB142000F0A1FB06B010BD0000C4
:100C50000064004040380240000C0240704703F03E
:100C60002BBE70477047704770B5044690F820005F
:100C7000012804D0606A40F40020606218E002207D
:100C800084F820002068016821F00101016000F073
:100C90001DFB05460EE000BF00F018FB401B0A28B4
:100CA00008D9606A40F400306062052084F82000B2
:100CB000012070BD20684068C007EDD1606270BD42
:100CC00070477047704770477047704770472DE90D
:100CD000F0410446876D00F0F9FA064694F83500B5
:100CE0000025022806D08020606584F83450012059
:100CF000BDE8F0812068016821F0160101602068DC
:100D0000416921F080014161206C08B9A06C20B1DB
:100D10002068016821F0080101602068016821F065
:100D2000010101600CE000F0D1FA801B052807D911
:100D300020206065032084F8350084F83450D7E71C
:100D400020680068C007EED194F85C103F2088400E
:100D5000B860012084F8350084F834500020C7E7DB
:100D600090F83510022903D0802141650120704799
:100D7000052180F835100068016821F0010101604B
:100D8000002070472DE9F84304464FF00009CDF8E4
:100D9000009063484FF41651A56D0068B0FBF1F761
:100DA0002E6894F85C10082000FA01F131420FD04F
:100DB00021680A6852070BD50A6822F004020A600B
:100DC00094F85C108840A860606D40F00100606598
:100DD00094F85C104FF0010808FA01F0304208D096
:100DE00021684969090604D5A860606D40F00200D9
:100DF000606594F85C1004208840304208D0216877
:100E00000968890704D5A860606D40F0040060653A
:100E100094F85C1010208840304218D0216809688E
:100E2000090714D5A86020680168490304D5006843
:100E3000000308D5A16C07E00168C90503D4016867
:100E400021F008010160216C09B12046884794F81F
:100E50005C1020208840304231D021680968C906E2
:100E60002DD5A86094F8350005282068016806D0C3
:100E7000490347D5006800031DD4616C1CE021F0D4
:100E8000160101602068416921F080014161206CF8
:100E900008B9A06C20B12068016821F00801016048
:100EA00094F85C103F208840A86084F8358084F86E
:100EB0003490216D1FE0E16B09B120468847606DD9
:100EC00000282BD0606DC00714D0052084F83500B1
:100ED0002068016821F0010101600098401C009029
:100EE000B84203D820680068C007F6D184F835807E
:100EF00084F83490E16C002910D001B02046BDE8A0
:100F0000F04308470168C905D5D4016821F01001F4
:100F1000016084F8358084F83490CCE7BDE8F8832C
:100F2000900000202DE9F041044600F0CFF906467C
:100F30005CB1022084F83500002584F83450206824
:100F4000016821F0010101600DE00120BDE8F081A0
:100F500000F0BCF9801B052805D92020606503201E
:100F600084F83500F2E720680068C007F0D12268F5
:100F7000116820480140D4E901031843D4E903363D
:100F80003343184363691843A3691843E36918435B
:100F9000236A18430843616A042903D1D4E90B1377
:100FA00019430843106020684069666A20F0070111
:100FB00030460E43012704280CD1A06A0643E06A9C
:100FC00040B12046FFF7A4FA20B14020606584F8C4
:100FD0003570BAE7206846612046FFF785FA94F835
:100FE0005C203F2191408160656584F83570002068
:100FF000ACE700003F8010F02DE9F0410446866D1B
:1010000090F83400002501280DD0012084F8340028
:1010100094F835700020012F07D084F834000225A1
:101020002846BDE8F0810220FBE7022784F83570EE
:1010300060652046FFF796FA94F85C103F208840E0
:10104000B0602068016841F016010160206C20B199
:101050002068016841F0080101602068016841F0E2
:1010600001010160DCE7000070B5044600F02EF9D4
:101070000546601C02D004480078044400F026F9BC
:10108000401BA042FAD370BD840000202DE9F84F28
:10109000DFF8F8A10022012403254FF00F090AF11F
:1010A000040BAAF1040E00BF0B6804FA02F63340E9
:1010B000B34270D10F7907F00307012F01D0022F3F
:1010C00016D187684FEA420805FA08FC27EA0C07A0
:1010D000D1F80CC00CFA08FC4CEA070CC0F808C0A8
:1010E0004768B7430E79C6F3001696403E43466004
:1010F0000E79F643B6070AD0C7684FEA420C05FAE4
:101100000CF6B7438E6806FA0CF63E43C6600E79BD
:1011100006F00306022E10D1D60800EB8608D8F898
:10112000206057074FEAD76C09FA0CF7BE430F69E6
:1011300007FA0CF73743C8F8207006684FEA420CEC
:1011400005FA0CF7BE430F7907F0030707FA0CF70F
:10115000374307604E6816F4403F1CD04C4E37684A
:1011600047F480473760366822F0030706F480466C
:101170000096484E07EB060CDCF8086897073F0F0F
:1011800009FA07F826EA0806DFF80C81404503D182
:101190004FF0000841E072E0DFF80081404502D1E5
:1011A0004FF0010839E0DFF8F880404502D14FF0F8
:1011B000020832E0DFF8EC80404502D14FF003082E
:1011C0002BE0DFF8E480404502D14FF0040824E032
:1011D000DFF8D880404502D14FF005081DE0DFF868
:1011E000D080404502D14FF0060816E0DFF8C480F9
:1011F000404502D14FF007080FE0DFF8BC804045C2
:1012000002D14FF0080808E0DFF8B080404502D175
:101210004FF0090801E04FF00A0808FA07F848EA19
:101220000608CCF80888DAF800605746D1F804C000
:101230009E435FEACC2C00D51E433E60DBF8006085
:101240005F46D1F804C09E435FEA8C2C00D51E4354
:101250003E60DEF800607746D1F804C09E435FEA46
:101260008C3C00D51E433E60084F083F3E68D1F8D5
:1012700004C09E435FEACC3C00D51E433E60521C36
:10128000102AFFF411AFBDE8F88F0000083C0140C0
:101290004438024000300140000002400004024097
:1012A00000080240000C02400010024000140240FE
:1012B00000180240001C02400020024000240240AE
:1012C0000AB1816170470904FBE7000001488068AA
:1012D00070470000840000200248816802781144B1
:1012E00081607047840000200B4810B5016841F40C
:1012F00000710160016841F480610160016841F49E
:1013000080710160032000F06FF80F2000F006F8F4
:1013100000F024F8002010BD003C024070B50D4DD7
:1013200004464FF47A712878B1FBF0F00A49096855
:10133000B1FBF0F000F03AFD48B9102C07D20022C2
:101340002146501E00F030F800206C6070BD012076
:1013500070BD000084000020900000200A4808B5FD
:10136000016841F480410160006800F48040009011
:101370000548001F016841F080510160006800F0DD
:101380008050009008BD000044380240002809DB6E
:1013900000F01F02012191404009800000F1E0208F
:1013A000C0F8001170470000F0B40E4B1B680C46EB
:1013B000C3F30223C3F10705042D00D90425191D29
:1013C000072901D2002300E0DB1E012606FA05F101
:1013D000491E214099409E40761E16403143F0BC84
:1013E00001F024BF0CED00E0064900F00702086898
:1013F0004FF6FF03184040EA0220034A10430860FA
:10140000704700000CED00E00000FA052DE9F04700
:101410000E46050065D0DFF81481D8F80000F7B259
:1014200000F00F00B04207D288F80070D8F8000032
:1014300000F00F00B04254D128683D4C810712D50E
:10144000400703D5206840F4E0502060287800076A
:1014500003D5206840F4604020602068A96820F02F
:10146000F000084320602878C0072DD03049686814
:101470000839012812D0022813D0032811D0096896
:10148000890700292DDA216821F003010143216039
:10149000FFF71CFF814641F2883A0EE00968890394
:1014A000EFE709688901ECE7FFF710FFA0EB0901FE
:1014B000514502D90320BDE8F0872068696800F033
:1014C0000C00B0EB810FEFD1D8F80010404601F0CE
:1014D0000F01B14207D90770006800F00F00B04259
:1014E00001D00120E7E72878400705D52068E968A2
:1014F00020F4E050084320602878000706D52068D3
:10150000296920F4604040EAC100206000F038F80A
:101510002168084AC1F30311515CC84006490860BC
:1015200006480068FFF7FAFE0020C4E7003C0240CE
:101530000838024024640008900000208800002041
:101540000448054900680968044AC1F38221515CD6
:10155000C8407047900000200838024034640008FA
:101560000448054900680968044AC1F34231515CE6
:10157000C8407047900000200838024034640008DA
:10158000154810B5006810F00C02144813D0144927
:10159000042A0FD0082A0ED10F4C241F226823687A
:1015A00002F03F025B0207D52068C0F38810A0FB61
:1015B000010106E0084610BD2168C1F38811A1FBB6
:1015C00000010023FEF762FE2168C1F30141491CBE
:1015D0004900B0FBF1F010BD083802400024F400CF
:1015E000001BB7002DE9F84F04006ED02078DFF81B
:1015F0004C93C007A9F104054AD009F10400016821
:10160000C1F38101012908D00068C0F381000228DC
:101610000AD1D9F80000400206D52868800337D5E2
:1016200060680028E1D033E06068B0F5803F10D0FA
:10163000B0F5A02F286810D020F4803028602868EA
:1016400020F4802028606068A8B1FFF73FFE0646BE
:101650000DE0286840F48030F4E740F480202860F2
:10166000F7E700BFFFF732FE801B642873D82868B5
:101670008003F7D50CE0FFF729FE064605E000BF22
:10168000FFF724FE801B6428F0D828688003F7D475
:101690002078DFF8AC8280074FF0000A3ED5A748DB
:1016A000001D016811F00C0F08D00068C0F3810024
:1016B00002280BD1D9F80000400207D4286880071F
:1016C00016D5E068012800D112E033E1E068B8B136
:1016D0000120C8F80000FFF7F9FD064605E000BF4D
:1016E000FFF7F4FD801B0228C0D828688007F7D5D3
:1016F0002868216920F0F80040EAC10028600DE068
:10170000C8F800A0FFF7E2FD064604E0FFF7DEFDA3
:10171000801B02281FD828688007F7D4207800078C
:1017200022D5864F87486169703771B10121016008
:10173000FFF7CCFD064604E0FFF7C8FD801B02283A
:1017400009D838688007F7D50EE0C0F800A0FFF789
:10175000BDFD064605E082E0FFF7B8FD801B0228CC
:101760007DD838688007F7D42078400768D5DFF83F
:10177000CCB100270BF13C0BDBF80000C0000BD410
:10178000DBF8001041F08051CBF80010DBF80000CE
:10179000012700F0805000906B4E3068C00510D4D7
:1017A000306840F480703060FFF790FD009005E0F5
:1017B000FFF78CFD0099401A022850D83068C00508
:1017C000F6D55E4EA0686C3601280FD0052830682B
:1017D00010D020F001003060306820F0040030604C
:1017E000A068B8B1FFF772FD00900FE0306840F0DC
:1017F0000100F4E740F004003060F7E7FFF766FD12
:101800000099411A41F28830814266D830688007D9
:10181000F4D50EE0FFF75AFD009007E0FFF756FD04
:101820000099411A41F28830814256D830688007C9
:10183000F4D42FB1DBF8001021F08051CBF8001068
:10184000A069C8B33D49091D0968C1F38101022996
:101850004AD00228504607D0C8F8600000E03CE0BB
:10186000FFF734FD04463BE04746C8F86000FFF749
:101870002DFD064605E000BFFFF728FD801B02286E
:101880002BD828688001F7D4D4E907010843A16A5E
:101890002E4A490802EB0141626A41EA821108437B
:1018A00094F82C1040EA0161C9F800100120386654
:1018B000FFF70CFD044606E03EE000BFFFF706FD23
:1018C000001B022809D828688001F7D534E000BF42
:1018D000FFF7FCFC001B022802D90320BDE8F88FAB
:1018E00028688001F4D427E00128F7D0D9F8000057
:1018F000E26900F4800191421CD1226A00F03F01AC
:10190000914217D147F6C071626A0140B1EB821F64
:1019100010D1A26A4FF0FF3300F4403103EB5202C2
:10192000B1EB024F06D194F82C1000F07060B0EBD0
:10193000016F01D00120D1E70020CFE70438024039
:1019400000004742800E4742007000400000FFFF49
:101950007047000038B5016804464A688868C0438B
:10196000430606D5C30704D1D3435B0601D4216CDB
:1019700005E0830708D4D3431B0605D4616C01B08E
:101980002046BDE830400847830603D5430601D50D
:10199000C30551D4D3439B064ED443060AD494F8CE
:1019A0005130032B49D0636D43F004036365CB686A
:1019B0008B680093830609D4636D43F0010363656C
:1019C0008B6800930B6823F040030B60C00506D4BE
:1019D000606D40F008006065206880680090606D70
:1019E000002829D02068416821F0E00141600120F1
:1019F00084F85100900701D4D00722D020684168B4
:101A000021F003014160114DE06C40B10565E06CCF
:101A1000FFF7A6F918B1606D40F040006065A06C5A
:101A2000002809D00565A06CFFF79AF9002803D0BB
:101A3000606D40F04000606538BDC86888680090FF
:101A400038BD2046FFF784FF38BD0000D52A0008C6
:101A500070B5040009D0606A002540B12561656158
:101A6000A56294F8510040B10CE0012070BD60689F
:101A7000B0F5827FF4D0E561F2E784F8505020465B
:101A800000F044F8022084F851002068016821F039
:101A900040010160A088218900F4827001F40441B2
:101AA0000843A18901F400610843217C01F002018F
:101AB0000843217D01F001010843218B01F40071ED
:101AC0000843217F01F03801084394F8201001F009
:101AD00080010843218D01F400510843216808600A
:101AE000A069042101EA104094F8241001F01001CB
:101AF0000843216848602068C16921F40061C16120
:101B00006565012084F85100002070BD70B586B075
:101B1000064614216846FEF762FC23493068884275
:101B200040D122480025016841F48011016000681D
:101B300000F4801005901D481438016841F0200120
:101B400001600068694600F0200005904FF4607065
:101B500000900220CDE901050320039005200490A8
:101B60001348FFF793FA144C124820604FF080603E
:101B7000C4E901050014C4E903506561A561E5618C
:101B8000256220466562FFF7CDF908B1FEF7FFFC3C
:101B9000F464002211465520A663FFF705FC55208A
:101BA000FFF7F4FB06B070BD00500140443802401E
:101BB0000014024058640240A00300202DE9FF4FAA
:101BC00081B01D46934604464FF001090E9EFFF773
:101BD0007DFB074694F851006168012806D0B1F5F5
:101BE000827F3CD1A168C9BB042838D10298002863
:101BF00071D0BBF1000FFBD0002DF9D094F850004C
:101C000001282CD04FF0010A84F850A094F851001C
:101C1000042802D0052084F851004FF00008C4F8D1
:101C20005480C4F838B0E587A58702992163E5861A
:101C3000A586C4F84080C4F844802068016849063D
:101C400003D4016841F040010160E068B0F5006F25
:101C5000606808D0F0B3012D49D081E0FFE7022091
:101C600005B0BDE8F08F08B1012D39D1206B216896
:101C70000088C860206B801C2063E08E401EE086D8
:101C80002EE02068816889070FD5E18E69B1B9F12E
:101C9000010F0AD1216B0988C160206B801C206371
:101CA000E08E401EE0864FF0000920688168C90779
:101CB0000CD0E18F51B1C068A16B0880A06B801C73
:101CC000A063E08F401EE0874FF00109FFF7FEFAA6
:101CD000C01B01E00BE067E0B04201D3701C50D1A3
:101CE000E08E0028CDD1E08F0028CAD13EE0206BE5
:101CF000216800780873206B401C2063E08E401E32
:101D0000E0862DE02068816889070FD5E18E69B1F2
:101D1000B9F1010F0AD1216B09780173206B401CC6
:101D20002063E08E401EE0864FF000092068816845
:101D3000C9070CD0E18F51B1C068A16B0870A06BCE
:101D4000401CA063E08F401EE0874FF00109FFF7C1
:101D5000BDFAC01BB04202D3701C01D011E086B1A5
:101D6000E08E0028CED1E08F0028CBD13A46314614
:101D7000204600F0B7FE50B12020606584F8508006
:101D800012E084F851A084F85080032068E7A0682E
:101D900018B92068C1688068009084F851A084F860
:101DA0005080606D0028F1D0012059E710B5401E29
:101DB000B0F1807F01D3012010BD4FF0E0246061BD
:101DC0000F21601701F032FA0020A0610720206186
:101DD000002010BD7047704770B590F83C20012A74
:101DE00032D0012480F83C40022280F83D20036874
:101DF0005A689D6822F070060A6832435A60134B95
:101E000002689A4214D0B2F1804F11D0104B9A421E
:101E10000ED0104B9A420BD00F4B9A4208D00F4B6A
:101E20009A4205D00E4B9A4202D00E4B9A4204D1F0
:101E3000496825F080031943916080F83D400021F6
:101E400080F83C10084670BD022070BD00000140C3
:101E50000004004000080040000C00400004014065
:101E6000004001400018004010B5040003D094F871
:101E70003D0010B107E0012010BD002084F83C00B7
:101E8000204600F01FF8022084F83D00211D206844
:101E900000F016FF012084F8460084F83E0084F824
:101EA0003F0084F8400084F8410084F8420084F840
:101EB000430084F8440084F8450084F83D00002085
:101EC00010BD000008B50068B0F1804F12D10A487B
:101ED000016841F0010101600068002200F001008A
:101EE000009011461C20FFF75FFABDE808401C2057
:101EF000FFF74CBA08BD00004038024090F83D1092
:101F0000012901D001207047022180F83D100168AD
:101F1000CA6842F00102CA6000681149884214D0C0
:101F2000B0F1804F11D00F4988420ED00E4988423F
:101F30000BD00E49884208D00D49884205D00D4982
:101F4000884202D00C49884204D1816801F007011F
:101F5000062903D0016841F00101016000207047AB
:101F6000000001400004004000080040000C004058
:101F700000040140004001400018004070B50446D4
:101F800090F83C000025012817D0012684F83C6019
:101F9000022084F83D002068826822F0770222F453
:101FA0007F4282600868502838D00DDC20284FD04E
:101FB00005DC90B3102811D14AE0022070BD302812
:101FC00046D040280AD13BE060282FD070280DD0A1
:101FD000B0F5805F03D0B0F5005F12D0012584F822
:101FE0003D60002084F83C00284670BDCB68D1E9F4
:101FF0000121206800F0D0FE2068816841F077015F
:1020000009E0CB68D1E90121206800F0C5FE206815
:10201000816841F480418160E1E719E0CA6849685C
:10202000206800F0CBFE5021206806E0CA684968AD
:10203000206800F0D4FE6021206800F0B7FECEE7F3
:10204000CA684968206800F0B9FE40212068F4E7BA
:10205000226801461046F0E770472DE9F04104463A
:102060000068C66805694FF00007A90713D5B107D6
:1020700011D5F91E01610120207720688069800751
:10208000204602D0FFF7E8FF04E000F07EF820468B
:1020900000F07CF82777680716D5700714D52168FB
:1020A0006FF004000861022020772068806910F436
:1020B000407F204602D0FFF7CFFF04E000F065F834
:1020C000204600F063F82777280715D5300713D589
:1020D00021686FF008000861042020772068C0693B
:1020E0008007204602D0FFF7B7FF04E000F04DF86C
:1020F000204600F04BF82777E80616D5F00614D5F1
:1021000021686FF010000861082020772068C069FE
:1021100010F4407F204602D0FFF79EFF04E000F05D
:1021200034F8204600F032F82777E80708D0F007A7
:1021300006D021686FF001000861204600F028F801
:10214000280608D5300606D521686FF080000861A2
:102150002046FFF73FFE680608D5700606D52168C1
:102160006FF040000861204600F056F8A8060AD536
:10217000B00608D521686FF0200008612046BDE850
:10218000F041FFF728BEBDE8F081704770470000BE
:102190007CB51B49884232D11A4800251A4C006888
:1021A000012818D12068401C20600A2813D1174844
:1021B000F7EE000A0246C16892ED040AB1F1FF3F52
:1021C00004D0012906D130EE200A01E030EE600A89
:1021D00080ED040A25600E4E306840B10023009562
:1021E0001A464FF400710B48019502F0E5FE606855
:1021F000401C6060962802DB0120656030607CBD79
:102200001003002034000020740000207001002022
:102210008000002090020020704738B5044690F8F6
:102220004200202801D0022038BD61B15AB10120FE
:10223000206300206063204600F07EFF0028F3D179
:10224000216B012901D0012038BD21680A68496845
:10225000009121680C3151E8002F42F0100241E852
:102260000023002BF5D138BD2DE9F05F2C4B02681F
:102270009A4253D12B4B2C4D0022DFF8B0901A60BC
:102280002B4EDFF8A880A9F14C09DFF8A4A0294F54
:102290002A684FF40014A9F1040BB83E32B102F0E1
:1022A00085FE3868404521D9484622E002F07EFE8E
:1022B0003868404501D9484602E0504502D95846A1
:1022C000046006E01A496039884201D9F46000E0F0
:1022D000B460142218491748FFF79FFF174A18499E
:1022E000144802F09BFF2868401C16E0504502D9B4
:1022F0005846046006E00E496039884201D9F4600E
:1023000000E0B46014220F490A48FFF786FF0B4A29
:102310000B49084802F082FF00202860BDE8F09FCA
:1023200000100140800000207C0000205864024022
:10233000B860024058030020B20000209002002044
:10234000B80200209400002070470000F8B5016832
:1023500004460868CA684B6910F00F0F4FF000057B
:1023600059D003F0010602F49077374365D0C107D6
:1023700005D0D10503D5616C41F0010161644107CD
:1023800005D5D90703D0616C41F002016164810772
:1023900005D5D90703D0616C41F0040161640107E0
:1023A00007D502F02001314303D0616C41F00801F0
:1023B0006164616C00293AD0800604D5900602D58C
:1023C000204600F0D2FD20684069616CC0F38010A7
:1023D000090700D460B3204600F092FD20684069F0
:1023E000400621D52068143050E8001F21F040013C
:1023F00040E80012002AF5D1E06BA8B16E490165F2
:10240000E06BFEF7ADFC002811D0E06B016D01B070
:10241000BDE8F040084783060FD593060DD520464A
:10242000BDE8F84000F0A1BD2046FFF78DFFF8BDE4
:102430002046FFF789FF6564F8BD266B2023012E37
:102440007DD1C6067BD5D60679D508684868009048
:1024500048694FF00206400641D5E16B08684068C4
:102460000004000CE8D0A28D8242E5D9E085C8695D
:10247000B0F5807F2DD020680C3050E8001F21F48B
:10248000807140E80012002AF5D12068143050E82D
:10249000001F21F0010140E80012002AF5D1206858
:1024A000143050E8001F21F0400140E80012002ADB
:1024B000F5D184F84230256320680C3050E8001FC5
:1024C00021F0100140E80012002AF5D1E06BFEF780
:1024D000FEFB6663A08DE18D401A81B22AE0A08DDB
:1024E000E18D401A81B2E08D0028A5D00029A3D04B
:1024F00022680C3252E8000F20F4907042E8000786
:10250000002FF5D12068143050E8002F22F001028E
:1025100040E80027002FF5D184F842302563206879
:102520000C3050E8002F22F0100240E80023002B6E
:10253000F5D166632046FFF797FEF8BDFFE7050675
:102540002BD5150629D594F841002128F5D1A0688E
:10255000B0F5805F01D12069B0B1206A411C2162D1
:10256000216800784860E08C401E0004000CE08484
:10257000E3D12068C16821F08001C1602068C16892
:1025800041F04001C160D8E7206A0088C0F308002C
:102590004860206A801C2062E5E74006CDD55006E1
:1025A000CBD5CA68204622F04002CA6084F8413088
:1025B00000F090F8C1E70000032E000870B5040099
:1025C00004D094F84100002510B106E0012070BD50
:1025D00084F84050204600F023F8242084F841007D
:1025E0002068C16821F40051C160204600F01EFD42
:1025F0002068016921F4904101612068416921F05E
:102600002A0141612068C16841F40051C1606564DC
:10261000202084F8410084F842006563002070BDEA
:1026200070B586B0064614216846FDF7D8FE2349EA
:10263000306888423FD122480025016841F01001EE
:102640000160006800F0100005901D481438016812
:1026500041F0020101600068694600F00200059047
:10266000C02000900220CDE901050320039007203F
:1026700004901448FEF70AFD144C134820604FF0F4
:102680000060C4E901054014C4E903506561A56117
:10269000E561256220466562FEF744FC08B1FDF75E
:1026A00076FFF463002211462520A663FEF77CFE28
:1026B0002520FEF76BFE06B070BD00000010014043
:1026C00044380240000402404064024000040020FC
:1026D000704770477047FEE70D4810B50B49016021
:1026E0000321416000214FF430228160C0E90312D0
:1026F0004161017641768176C17601774177FEF7B7
:10270000E4F9002801D072B6FEE710BD0064004075
:102710009002002030B587B014216846FDF75FFEB7
:102720001D480024016841F001010160016801F0C9
:1027300001010591016841F002010160016801F0A9
:1027400002010591016841F008010160016801F092
:1027500008010591016841F080010160016801F004
:1027600080010591016841F02001016000680B4D76
:1027700000F020000590002240212846FEF7A0FD31
:10278000402000900120CDE90104694628460394C9
:10279000FEF77CFC07B030BD303802400014024028
:1027A0000F4810B50D4901604FF48271416000215E
:1027B00002228160C0E90312012242615202826159
:1027C0003022C0E90721416281620A21C162FFF71C
:1027D0003FF9002801D072B6FEE710BD005001405D
:1027E000B802002010B586B0002416480094019469
:1027F0000294039404944FF080410594016042F2E6
:10280000CF01C0E901140921C0E903148461FFF775
:102810002BFB08B172B6FEE74FF48050009069467A
:102820000848FFF7ABFB08B172B6FEE7049404A9B1
:1028300004480594FFF7D0FA002801D072B6FEE7ED
:1028400006B010BD10030020FEE7FEE730EE601A70
:10285000D0ED071AF4EEC11AF1EE10FA06D3F1EE3C
:10286000611AF4EEC11AF1EE10FA01DDB0EE611A50
:10287000B5EEC00AF1EE10FA04DBB4EEE00AF1EEB8
:1028800010FA09D3B5EEC00AF1EE10FA08D2B4EE90
:10289000E00AF1EE10FA03DD9FED2C0A80ED030A49
:1028A00090ED030A30EE010A80ED030ABDEEC00A86
:1028B00010EE102A90ED050A002AFDEEC00A10EE77
:1028C000901A00DA5242002900DA49428A4206DDB3
:1028D000B5EEC00AF1EE10FA01D080ED030A90EDDA
:1028E000040AD0ED031A71EE400A90ED010A20EEC1
:1028F000210AD0ED001A01EE810AD0ED021A80ED16
:10290000041A01EEA00AD0ED060ABDEEC00A10EED0
:10291000101A00EE101AB8EEC00AF4EEC00AF1EE7A
:1029200010FA02D2BDEEE00A0CE0B1EE600A00EE51
:10293000901AF8EEE00AB4EEE00AF1EE10FA03DDC8
:10294000BDEEC00A10EE101A0846704700000000E5
:1029500080EC030A9FED040A80ED030A80ED040A6F
:102960001430C0EC031A70470000000030EE601A0B
:10297000484A11EE101A9FED481A914201D930EEE3
:10298000010A464A70EE601A11EE901A914201DD7A
:1029900030EE410AD0ED071A30EE601AF4EEC11A9B
:1029A000F1EE10FA06D3F1EE611AF4EEC11AF1EE6F
:1029B00010FA01DDB0EE611AB5EEC00AF1EE10FAC0
:1029C00004DBB4EEE00AF1EE10FA09D3B5EEC00A6A
:1029D000F1EE10FA08D2B4EEE00AF1EE10FA03DDDF
:1029E0009FED2F0A80ED030A90ED030A30EE010AF5
:1029F00080ED030ABDEEC00A10EE102A90ED050A24
:102A0000002AFDEEC00A10EE901A00DA52420029A8
:102A100000DA49428A4206DDB5EEC00AF1EE10FA4C
:102A200001D080ED030AD0ED010AD0ED031A90ED3C
:102A3000040A60EEA10AD0ED001A31EE400A41EE20
:102A4000810AD0ED021A80ED041A41EE800ABDEE33
:102A5000E00AD0ED060A10EE101A00EE101AB8EED9
:102A6000C00AF4EEC00AF1EE10FA02D2BDEEE00A9E
:102A70000CE0B1EE600A00EE901AF8EEE00AB4EE57
:102A8000E00AF1EE10FA03DDBDEEC00A10EE101AF6
:102A900008467047000034C30000B44300003443CC
:102AA00000000000704700000148FEF753BF00001F
:102AB000B802002001B582B04FF47A700090012373
:102AC00001AA02A90248FFF779F89DF804000EBD9B
:102AD000B802002010B5806B0021C187C186FEF7C7
:102AE00037FF10BDF8B515460E460B46009204465A
:102AF0000122022100F02CF8A0B913481349006804
:102B0000B0FBF1F04FF47A71484300906068B0F583
:102B1000827F0DD13346002280212046009500F0AF
:102B200017F870B1606D40F0200060650320F8BDBB
:102B3000009830B1401E009020688068C0430006B5
:102B4000F6D50020F8BD00009000002000366E0190
:102B50002DE9F8431E46914688460446089DFEF737
:102B6000B5FB401B351AFEF7B1FB07462548006848
:102B7000C0F3CB30684338E0701C37D0FEF7A6FBBB
:102B8000C01BA84203D215B1009860B32CE02068A6
:102B9000416821F0E00141606068B0F5827F0BD1AF
:102BA000A068B0F5004F02D0B0F5806F04D1206866
:102BB000016821F040010160A06AB0F5005F09D111
:102BC0002068016821F4005101602068016841F427
:102BD00000510160012084F85100002084F8500069
:102BE0000320BDE8F8830025401E0090206881681E
:102BF00038EA010004D000214945BDD10020F0E7AA
:102C00000121F9E7900000207047FEF765BB000046
:102C100030B593B030216846FDF7E1FB14210CA8D4
:102C2000FDF7DDFB1D480025016841F08051016082
:102C3000006800F0805011901948016841F440414B
:102C400001600068022400F44040119001200090CF
:102C5000000401908001CDE9064006200890A820DC
:102C6000CDE9090404200B906846FEF7BBFC08B1CF
:102C700072B6FEE70CA90F2081E831004FF4A05096
:102C80000F904FF48050109005210CA8FEF7BEFB6A
:102C9000002801D072B6FEE713B030BD40380240C4
:102CA000007000400248016841F470010160704703
:102CB00088ED00E00148FFF7D0B9000010030020C4
:102CC000F0B50268294C2A4D2A4E2B4F2B4B4FF062
:102CD000804CA04209D0604507D0A84205D0B04240
:102CE00003D0B84201D0984204D122F0700E4A6855
:102CF00042EA0E02A0421BD0604519D0A84217D06C
:102D0000B04215D0B84213D0984211D01C4DA84201
:102D10000ED01C4DA8420BD01B4DA84208D01B4D15
:102D2000A84205D01A4DA84202D01A4DA84203D19C
:102D300022F44075CA682A434D6922F080022A4372
:102D400002608A68C2620A688262A04201D0984228
:102D500001D109690163012141610169C90703D0FA
:102D6000016921F001010161F0BD00000000014096
:102D70000004004000080040000C00400004014036
:102D8000004001400044014000480140001800405C
:102D9000001C00400020004010B5846842EA032275
:102DA00024F47F440A432243826010BD826822F0EB
:102DB00070020A4342F007018160704710B5036A50
:102DC000046A24F001040462846924F0F00444EAF3
:102DD000021423F00A020A438461026210BD10B596
:102DE000036A046A24F010040462846923F0A003D7
:102DF00024F4704444EA023243EA01118261016220
:102E000010BD10B5806B0021C185C184FFF79CFA0D
:102E100010BD70B5846B2068406994F84110C0F310
:102E2000C0100025212904D118B1E584204600F006
:102E30008EF82068406994F84210C0F3801022296F
:102E400004D118B1E585204600F05AF8606C40F0D6
:102E5000100060642046FFF777FA70BD10B5014698
:102E6000806B096809684FF00002C9052ED4C2853D
:102E700001680C3151E8003F23F4807341E80034CD
:102E8000002CF5D10168143151E8003F23F0010313
:102E900041E80034002CF5D10168143151E8003FBD
:102EA00023F0400341E80034002CF5D1202180F8C4
:102EB0004210016B012909D101680C3151E8003F32
:102EC00023F0100341E80034002CF5D14263016B7C
:102ED000012902D0FFF7FCFB10BD818DFFF7C4F97B
:102EE00010BD10B5806B01214163016B012902D037
:102EF000FFF7EFFB10BD818D4908FFF7B5F910BD55
:102F000001680C3151E8002F22F4907241E800234F
:102F1000002BF5D10168143151E8002F22F0010295
:102F200041E80023002BF5D1016B012909D101688B
:102F30000C3151E8002F22F0100241E80023002B51
:102F4000F5D1202180F8421000210163704701680B
:102F50000C3151E8002F22F0C00241E80023002B81
:102F6000F5D1202180F84110704708B590F8421043
:102F7000222901D0022008BD82684FF480539A4272
:102F800001D1016921B1816A9A421BD04AB10AE09C
:102F90000268816A5268C2F308020A80816A891C49
:102FA00008E0026972B10268526802F07F020A709A
:102FB000816A491C8162C18D491E0904090CC185C1
:102FC00003D01BE002685268F1E70168CA6822F08A
:102FD0002002CA600168CA6822F48072CA6001686F
:102FE0004A6922F001024A61202180F84210002142
:102FF0004163026B012A03D0FFF76AFB002008BD82
:10300000016301680C3151E8002F22F0100241E801
:103010000023002BF5D101680A68D20602D50A68A0
:1030200049680091818DFFF71FF9E7E770B5044605
:1030300000680169E26821F440511143016121698E
:10304000A068E26908436169114308432168CA68BE
:1030500049F20C639A430243CA6020684169A2693D
:1030600021F440711143416131492068884202D006
:103070003049884202D1FEF773FA01E0FEF760FAA8
:10308000E2690023192164253226B2F5004F6268F7
:1030900028D0A0FB0101930F9200FDF7F7F801463D
:1030A000B0FBF5F06FF01802504301EB800006EB27
:1030B0000010B0FBF5F000F0F002B1FBF5F002EB10
:1030C0000012B1FBF5F06FF01803584301EB8000DC
:1030D00006EB0010B0FBF5F000F00F002168104483
:1030E000886070BDA0FB010192185B41FDF7CEF82E
:1030F0000146B0FBF5F00201B1FBF5F06FF01803EB
:10310000584301EB800006EBC000B0FBF5F000F087
:10311000F80002EB4002B1FBF5F0584301EB8000F0
:1031200006EBC000B0FBF5F000F00700D6E70000AA
:10313000001001400014014038B5816204468285C8
:10314000002013466064222284F84220E56B1B4A6B
:10315000EA63E56B1A4A2A64E56B1A4AEA64E26B91
:1031600010650A462168E06B091DFDF745FF2068E0
:10317000016840680090206948B120680C3050E830
:10318000001F41F4807140E80012002AF5D1206848
:10319000143050E8001F41F0010140E80012002AFD
:1031A000F5D12068143050E8001F41F0400140E89C
:1031B0000012002AF5D1002038BD00005D2E000865
:1031C000E32E0008132E00080148FFF7BFB80000E7
:1031D00058030020FEE703B401984100009850EA2C
:1031E000C12018BF04204A0D18BF40F0010040F272
:1031F000FF72B2EB515F08BF40F00200012808BF28
:10320000052002B070474100080218BF04200A0ED2
:1032100018BF40F001004FF07F4232EA010108BFC1
:1032200040F00200012808BF052070470907090E79
:10323000002804DB00F1E02080F80014704700F063
:103240000F0000F1E02080F8141D7047000000001E
:1032500070B5C1482DED020B2DED0E8B82B0119D86
:1032600025F000449FEDBEDB9FEDBFEB84423EDBCB
:10327000A4F140511098A1F17F6108430FD0BC48E0
:10328000844202DC28D1109830B39DED100B02B0BF
:10329000BDEC0E8B02B0BDE8704001F039B89DED79
:1032A000100B53EC1D2B51EC100B02F071FD9DED3A
:1032B000100B41EC180B53EC1E2B51EC100B02F0D1
:1032C00067FD53EC182B02F009FB41EC100B02B028
:1032D000BDEC0E8B02B070BD0120FDF7AFF802B05F
:1032E000BDEC0E8B02B0BDE8704001F01DB8A148E6
:1032F0009FEDA18B844256DA9DED100BB4F1795FFE
:103300000ADA51EC100BFFF766FF042808BF01F042
:103310001BF89DED100BDAE753EC102B51EC100B62
:1033200002F036FD41EC190B95480621B0EE490A32
:10333000F0EE690A784400F0D7FE53EC192B51ECFB
:10334000100B02F025FD41EC1A0B8E48B0EE490A35
:10335000F0EE690A0421784400F0C6FE53EC192B04
:1033600051EC100B02F014FD53EC182B02F0B6FADE
:1033700041EC100B51EC1A0B53EC102B02F056FBE6
:10338000CDE900019DED000B53EC102B9DED100BD2
:1033900051EC100B02F0FCFC9DED101B53EC112BBB
:1033A00002F09CFAD2E09DED100B51EC100B00F0F6
:1033B000F1FF53EC182B02F0E9FD9FED730BCDE903
:1033C000000153EC102B9DED000B51EC100B02F0A3
:1033D000DFFC41EC190B6E480621B0EE490AF0EE15
:1033E000690A784400F080FE53EC192B51EC100B65
:1033F00002F0CEFC41EC1B0B6648B0EE490AF0EE41
:10340000690A0421784400F06FFE53EC192B51EC4B
:10341000100B02F0BDFC53EC182B02F05FFA41ECEC
:103420001C0B51EC190B01F0F6FD41EC180B5A483E
:103430009FED5BABA04222DC53EC1C2B51EC1B0B31
:1034400002F0F4FACDE900019DED000B51EC180BF0
:1034500053EC102B02F09CFC53EC182B02F03EFABC
:1034600053EC1A2B02F094FC53EC1D2B02F066FE79
:1034700053EC1E2B02F08AFD41EC100B5FE08DED4A
:10348000008B002000909DED000B51EC180B53ECCD
:10349000102B02F023FA9DED000B41EC1E0B53ECB8
:1034A000102B51EC100B02F073FC53EC192B02F0B3
:1034B0006DFD53EC1E2B02F0B9FA41EC190B53ECE5
:1034C0001C2B51EC1B0B02F0B1FA41EC1B0B53EC23
:1034D0001A2B51EC190B02F05BFC53EC1D2B02F084
:1034E00055FD41EC190B53EC1A2B51EC180B02F063
:1034F0004FFC53EC1B2B02F04BFC53EC192B02F04E
:103500001DFE9DED000B41EC180B53EC1A2B51ECFA
:10351000100B02F03DFC9FED249B53EC192B02F0A5
:1035200035FD41EC100B51EC180B53EC102B02F055
:1035300005FE53EC192B02F029FD41EC100B002D78
:103540003FF7C5AE51EC100B02F08AF941EC100BBD
:10355000BDE60000000000000000F03F0000000099
:10356000075C143326A6913C182D4454FB21F93FE7
:103570000000F07F0000E03F000000000000F03F8E
:103580000831000016310000000000000000E03F9C
:103590005A300000683000003333EF3F0000000075
:1035A0000000000000000040182D4454FB21E93FBA
:1035B00010B54FF00E402DED028BB0EE408A18EEA4
:1035C000104A00EB4400B0F1506F4AD84FF0FC4075
:1035D000B0EB440F22D2B0EEC80AF7EE000A30EE8C
:1035E000C00AF6EE000A60EE208A18EE900A01F09A
:1035F00049FD01EE100A14F0004F1DBFDFED2D0A4A
:103600009FED2D0AB1EE411ADFED2C0A08BF9FEDA8
:103610002C0AF8EE001A21EE218A05E0DFED290AD6
:1036200068EE088AB0EE600A9FED271ADFED271AD0
:1036300030EE080A48EE811A9FED251A08EEA11A0D
:10364000DFED241A48EE811A9FED231A08EEA11A25
:1036500068EE281ABDEC028B01EE810A30EE200ADA
:1036600010BD4FF0E440B0EB440F0CD918EE100A37
:10367000FFF7C9FD042808BF00F084FEB0EE480A39
:10368000BDEC028B10BD4FF07F40B0EB440F07D272
:10369000B0EE480ABDEC028BBDE8104000F064BEFD
:1036A0000120FCF7CBFEBDEC028BBDE8104000F022
:1036B00061BE00000000C9BF22AAFDB90000C93FD9
:1036C00022AAFD390000000024FE1C3DC78AD83C18
:1036D0001E67383D1B93993DAFAA2A3E10EE100A93
:1036E00010B510EE901A4FF0684202EB40032DED3A
:1036F000028BB3F1654F3CBF02EB4102B2F1654F63
:103700007CD200BFC0F3C753C1F3C7529A1A1B2A19
:1037100009DD10F0004F14BF9FED6E0A9FED6E0A99
:10372000BDEC028B10BD12F11A0F1BDA11F0004F25
:1037300009D010F0004F0CBF9FED680A9FED680A9A
:10374000BDEC028B10BD80EE208A18EE100AFFF748
:103750005AFD042808BF00F015FEB0EE480ABDEC83
:10376000028B10BD4200B2EB410F37D910F0004F71
:1037700019BFDFED5C1A9FED5C1ADFED5C1A9FED5F
:103780005C1AB0EE602A0A46F1EE400A80F0004171
:10379000B0EE420A10460A1A5200B2F1807F34D2CB
:1037A000484010F0004FDFED532A9FED533A1DBF04
:1037B000BEEE002A71EEE21A31EE431AB6EE002A8E
:1037C00004BF71EEA21A31EE031AF0EE402A42EE67
:1037D000602A40EE020A82EEA02A18E011F0004FA3
:1037E00004BF9FED461AF0EE411AD4D010F0004FFE
:1037F0001CBFDFED431A9FED431A00E026E004BF33
:10380000DFED411A9FED411AC5E780EE202A22EE36
:10381000020ADFED3F0ADFED3F2ABDEC028B40EEEE
:10382000202ADFED3D0A40EE220ADFED3C2A40EE81
:10383000202ADFED3B0A40EE220A22EE000A00EECB
:10384000201A31EE020A30EE210A10BD4FF07F42FD
:10385000B2EB400F28BFB2EB410F05D2BDEC028B9B
:10386000BDE8104000F083BD40EA01035B0008BFE3
:1038700041F0FF410BD0B2EB400F08BFB2EB410F5C
:1038800008D120F0804000EE100A21F0804100EEC7
:10389000901A37E7B2EB400F12BF5FEA410240F0E7
:1038A000FF4001F000413FF42DAF4A0092EA40038F
:1038B0003FF528AF002AACBF9FED1A1A9FED1A1AE8
:1038C00020EE010A60EE810A10EE100A10EE901A46
:1038D00018E70000DB0FC9BFDB0FC93FDB0F494012
:1038E000DB0F49C00000C9BF22AAFDB90000C93FD3
:1038F00022AAFD390060ED3EC30ACE370000000069
:10390000000049C022AA7DBA0000494022AA7D3A9F
:103910002DAD65BD8FB8D53D0FB511BE61C84C3E0C
:10392000A8AAAABE0000804F0000802F000000005F
:1039300010B52F499FED2C1B2DED020B84B005987F
:1039400020F000408842D8BF9DED040B2DDD2949B1
:10395000884209D1049840B94FF00100FCF76EFD90
:1039600000F0E2FC06B010BD05DB9DED040B00F09D
:10397000CFFC06B010BD68469DED040B00F0E0F8EA
:1039800010F0030004BF9DED021B9DED000B0CD059
:1039900001280ED09DED021B9DED000B022817D0D3
:1039A000012000F01DFC06B010BD00F0E5FA06B0E5
:1039B00010BD9DED021B9DED000B012000F010FCE1
:1039C00051EC100B01F04CFF06B041EC100B10BD98
:1039D00000F0D2FA51EC100B01F042FF06B041ECBE
:1039E000100B10BD000000000000000000000000EF
:1039F000FB21E93F0000F07F10B52F499FED2C1B04
:103A00002DED020B84B0059820F000408842DCBF09
:103A100000209DED040B32DD2849884209D104982D
:103A200040B94FF00100FCF709FD00F07DFC06B045
:103A300010BD05DB9DED040B00F06AFC06B010BD67
:103A400068469DED040B00F07BF810F0030011D0E8
:103A5000012818D09DED021B9DED000B02281AD005
:103A600000F08AFA51EC100B01F0FAFE06B041ECBE
:103A7000100B10BD9DED021B9DED000B012000F011
:103A8000AFFB06B010BD9DED021B9DED000B00F0DD
:103A900073FA06B010BD012000F0A2FB51EC100B30
:103AA00001F0DEFE06B041EC100B10BD000000007E
:103AB0000000000000000000FB21E93F0000F07F53
:103AC00000B52DED048BB0EE409AF0EE609A83B015
:103AD00051EC190B02F066FA41EC180B18EE100AC3
:103AE00018EE901A8DED008B002818BF01200843B6
:103AF00020F00040C0F17F6000F1E040C00F14D022
:103B000019EE101A19EE900A8DED009B002918BFCE
:103B10000121084320F00040C0F17F6000F1E04047
:103B2000C00F04BF0120FCF789FCB0EE480A03B0C7
:103B3000F0EE680ABDEC048B00BD00000000000040
:103B40002DE9F14F04462DED020B2DED088B8AB0C7
:103B50009FEDE70B80ED020B139EE74826F0004532
:103B600085420ADC9DED120B002084ED000B0AB0AB
:103B7000BDEC088B03B0BDE8F08FE0489FEDE0ABF3
:103B80009FEDE1BBA84247DDE14F9FEDE39B9FED39
:103B9000E48B9DED120B53EC1A2B51EC100B002E05
:103BA0001CDD02F0CBFA41EC100BBD4208D053EC07
:103BB0001B2B51EC100B02F0C1FAC4E900010BE021
:103BC00053EC192B51EC100B02F0B8FA53EC182BF4
:103BD00002F0B4FAC4E900010120C8E701F07EFE5A
:103BE00041EC100BBD4208D053EC1B2B51EC100BD9
:103BF00001F074FEC4E900010BE053EC192B51EC09
:103C0000100B01F06BFE53EC182B01F067FEC4E9BA
:103C100000014FF0FF30AAE7C348A84279DB9DEDD1
:103C2000120B51EC100B00F0B5FB41EC180B9FEDA3
:103C3000C00B53EC102B02F0ABF89FEDBF1B53EC05
:103C4000112B01F04BFE02F049F8074602F075F81F
:103C500041EC190B53EC1A2B02F09AF853EC182B89
:103C600002F094F941EC180B53EC1B2B51EC190B9F
:103C700002F08EF8DFF8C8A241EC100B4FEA15589D
:103C80000125FA4453EC102B51EC180B02F056FAB4
:103C9000032DC4E900013DD0C1F30A5005EB4511E5
:103CA000A8EB00001139814234DA0AEB051BB0EEB3
:103CB00048AA9BED000BF0EE68AA53EC102B51ECD8
:103CC000190B02F065F841EC1B0B51EC1A0B53EC8D
:103CD0001B2B02F033FA41EC180B51EC1A0B53EC8E
:103CE000182B02F02BFA53EC1B2B02F027FA9BED5A
:103CF000020B41EC1A0B53EC102B51EC190B02F098
:103D000047F853EC1A2B02F019FA41EC100B6D1C1A
:103D1000B8E70EE0002EA8BF3846BFF628AF94EDF6
:103D2000000B51EC100B01F09BFDC4E9000178423F
:103D30001DE7C6F3130040F4801EC6F30A50A0F23C
:103D4000F530471100F01F05C5F12000DDF848B03F
:103D500008900020069007900520EC467949002D38
:103D600007EB0002794408BF51F8221009D051F83E
:103D7000223001EB8201AB404A68089922FA01F136
:103D80001943A1FB0E26A1FB0B131A449A4234BF20
:103D90000123002303EB06080CEB8003D3E901A603
:103DA0000E448E4234BF0121002192448A4411B155
:103DB000924502D903E0924501D2012100E00021A1
:103DC000C3E901A641444CF82010011EA0F10100F6
:103DD000C4DC029800F10050850F0298DDE903670A
:103DE0008000DDF8148001F0A8FF41EC1A0B30468A
:103DF00001F0BAFF9FED541B53EC112B01F0C8FFEB
:103E000041EC1B0B384601F0AFFF9FED511B53EC0B
:103E1000112B01F0BDFF41EC180B404601F0A4FF4F
:103E20009FED4D1B53EC112B01F0B2FF41EC190B30
:103E300051EC180B53EC192B01F050FD53EC1B2BDC
:103E400001F04CFD53EC1A2B01F048FDCDE90801BF
:103E5000002008909DED080B53EC1A2B51EC100B31
:103E600002F06CF953EC1B2B02F068F953EC182BA1
:103E700002F064F953EC192B02F088F89FED381B1F
:103E800053EC112B01F084FF9FED370B41EC180B25
:103E900053EC102B9DED080B51EC100B01F078FF4B
:103EA00053EC182B01F01AFD9FED310B41EC180B70
:103EB00053EC102B9DED080B51EC100B01F068FF3B
:103EC00053EC182B01F00AFD41EC100B139810F085
:103ED000004F06D06D4251EC100B01F0C1FC41ECDB
:103EE000100B284684ED000B41E6000000000000A6
:103EF0000000000000000000FB21E93F7CD90240E7
:103F000000004054FB21F93F3163621A61B4D03D97
:103F1000FB21F93F000000000000601A61B4D03DB1
:103F20007370032E8A19A33BFB2139410000000066
:103F300083C8C96D305FE43F000000000000E03F2F
:103F40003A28000088270000000000000000103E12
:103F5000000000000000103C000000000000103ACB
:103F6000182D4454FB21F93D3326A611460B113C74
:103F700000000054FB21F93D10B52DED040B2DED93
:103F8000088B82B0B0EE419AF0EE619A0B9820F067
:103F900000449FED4BABB4F1795F11DA9DED0A0B54
:103FA00051EC100B01F09AFE002801BFB0EE4A0A56
:103FB000F0EE6A0A02B0BDEC088B04BF04B010BD7D
:103FC0009DED0A0B53EC102B51EC100B01F0E0FEB1
:103FD00041EC180B3C480621B0EE480AF0EE680AA6
:103FE000784400F081F853EC182B51EC100B01F0E1
:103FF000CFFE9DED0A0B41EC1B0B53EC192B51EC42
:10400000100B01F0C5FE41EC190B53EC1B2B51ECCE
:10401000180B01F0BDFE53EC192B02F08FF89FED49
:104020002C0B41EC190B53EC102B51EC180B01F03D
:10403000AFFE41EC100B2848844210DA53EC192BE8
:1040400051EC100B02F07AF853EC1A2B01F09EFFA2
:1040500041EC100B02B0BDEC088B04B010BD1F4842
:10406000A042BCBF9FED1E1B8DED001B06DBA4F51F
:1040700000100190002000909DED001B51EC100BF2
:1040800053EC112B02F05AF89DED000B41EC180B8C
:1040900053EC102B51EC1A0B02F050F841EC1A0BB8
:1040A00053EC192B51EC180B02F048F853EC1A2B77
:1040B00001F06CFF41EC100BCCE7000000000000A9
:1040C000000000000000F03FAC24000000000000F1
:1040D000000000000000E03F3333D33F0000E93F21
:1040E000000000000000D23F70B504462DED028BA9
:1040F0004D1E00EBC500B0EE408AF0EE608A90EDF8
:10410000000B35F0060017D053EC182B51EC100BB8
:1041100001F03EFE41EC100B6D1E04EBC50090ED6E
:10412000001B51EC100B53EC112B01F0D7FB41ECB1
:10413000100B35F00600E7D1022D36D0042D1CD02F
:10414000062D1CBFBDEC028B70BD53EC182B51EC3F
:10415000100B01F01DFE94ED0A1B53EC112B01F026
:10416000BDFB53EC182B01F013FE94ED081B53EC30
:10417000112B01F0B3FB41EC100B53EC182B51EC5D
:10418000100B01F005FE94ED061B53EC112B01F012
:10419000A5FB53EC182B01F0FBFD94ED040B53EC45
:1041A000102B01F09BFB41EC100B53EC182B51EC46
:1041B000100B01F0EDFD94ED021B53EC112B01F0FF
:1041C0008DFB53EC182B01F0E3FD94ED001B53EC39
:1041D000112B01F083FBBDEC028B41EC100B70BD89
:1041E00031B504462DED040B2DED0A8BB0EE41BA2E
:1041F000F0EE61BA0B989DED0A0B20F00040B0F193
:10420000795F0DDA51EC100BFEF7E5FF042808BFCB
:1042100000F09AF89DED0A0BBDEC0A8B05B030BD9D
:1042200053EC102B51EC100B01F0B2FD41EC180BCC
:104230009DED0A0B53EC182B51EC100B01F0A8FD6F
:1042400041EC190B2C48B0EE480AF0EE680A052143
:104250007844FFF749FF9FED2ACBB0EE40AAF0EE7D
:1042600060AA9CB353EC1C2B51EC190B01F090FD90
:1042700041EC1C0B53EC1A2B51EC190B01F088FD8F
:104280009FED210B41EC190B53EC102B51EC1B0B48
:1042900001F07EFD53EC192B01F050FF53EC182B6D
:1042A00001F076FD53EC1B2B01F048FF53EC1C2B67
:1042B00001F044FF9DED0A1B53EC112B01F066FE4B
:1042C000BDEC0A8B05B041EC100B30BDFFE753ECA1
:1042D0001A2B51EC180B01F05BFD53EC1C2B01F079
:1042E000FDFA53EC192B01F053FD9DED0A1B53EC25
:1042F000112B01F0F3FAE3E7342300000000000083
:10430000495555555555C5BF000000000000E03F18
:1043100010B553EC102B51EC100B01F0DFFA41EC0F
:10432000100B10BD000000009FED050B10B553EC05
:10433000102B51EC100B01F079FB41EC100B10BD70
:1043400000000000000000009FED050B10B553ECCD
:10435000102B51EC100B01F01BFD41EC100B10BDAC
:10436000000000000000001030EE000A704730EE40
:10437000200A7047DFED020A80EEA00A70470000B5
:10438000000000009FED020A20EE000A70470000C6
:104390000000001082B0CDE9000121F00040019042
:1043A0009DED000B02B051EC100B704770B5018809
:1043B000C1F30A051A490D8042788378D20842EA8F
:1043C0004312C2F30A044C808278C378920942EA0D
:1043D000830203796D1D42EA8322C2F30A038B80B4
:1043E00002794679520842EAC612C2F30A02CA802A
:1043F0004679B6090E724079C0F301104872002068
:104400000A2D00D80880641D0A2C00D848805B1D46
:104410000A2B00D888800A32142A00D8C88070BDC0
:10442000A80000202C48D0ED030A90ED051AD0ED2D
:10443000023A90ED040A60EE814A23EE814A23EEAF
:10444000A02A63EE802A20EEA05A60EE803A60EE49
:10445000001A21EE013AF7EE000A20EE011AB0EE42
:10446000000AF0EE605A1D4841EEC05A45EE400A7F
:1044700043EE405AC0ED005A73EEC45A73EE843ACC
:1044800065EE805A63EE803AC0ED015A74EEA25A8E
:1044900074EEE22A65EE805A62EE802AC0ED025A7E
:1044A000C0ED033AF0EE603A41EEC00A43EE403A06
:1044B00031EE423A31EE021A23EE003AC0ED043AF0
:1044C00021EE001A80ED053AC0ED062A80ED071AAC
:1044D000C0ED080A704700000800002040010020DD
:1044E00070B52DED088BF0EE40BAB0EE43BAB6EEE3
:1044F000000AF0EE609A6BEE00AA9FED8F0AF5EECF
:10450000C0BAB0EE41AA21EE808A62EE008A22EEA5
:10451000809A8A4D8A4CF1EE10FA09D1F5EEC09AD4
:10452000F1EE10FA04D1B5EEC0AAF1EE10FA7DD08A
:104530002BEEAB0A09EEA90A0AEE0A0A00F056F9B8
:1045400069EE802A95ED083A2AEE001A6BEE800A91
:1045500022EE832AD5ED071A95ED060A01EE612AAF
:1045600021EE001A60EEA11A00EEC31A42EEC01A44
:1045700094ED010AD4ED072A20EE023A60EE010A1A
:1045800020EE210A40EE8B2AC4ED072AD4ED060A5C
:1045900043EE0B0AC4ED060A94ED083A00EE0B3A1E
:1045A00084ED083A94ED090AF4EEC00AF1EE10FA2F
:1045B00001DD84ED060AD4ED063AF1EE400AF4EE90
:1045C000E03AF1EE10FA01D2C4ED060AF4EEC02A88
:1045D000F1EE10FA01DD84ED070AD4ED072AF4EEBE
:1045E000E02AF1EE10FA01D2C4ED070AB4EEC03AA7
:1045F000F1EE10FA02DCB0EE430A01E084ED080AA5
:10460000B4EEE00AF1EE10FA01D2C4ED080AD4EDDE
:10461000060A94ED000A40EE020A38EE208AD4ED34
:10462000070A40EE010A78EEA08A00E005E0D4ED2A
:10463000080A40EE210A39EE209A94ED032A94EDFF
:10464000041AD4ED051A22EE483AF0EE412A94ED10
:10465000020AF0EE420A02EEE83AF0EE403A01EECB
:10466000C93A43EE2A3A28EE003A01EE093AC4ED7F
:10467000023A01EEE83A43EE2A0A28EE803A29EEA1
:10468000000A02EE493A02EE280AC4ED030A01EEDE
:10469000883A02EEC80A03EE2A1A40EE2A1A23EEDE
:1046A000A30A84ED041A00EEA00AB0EE413AC4ED6C
:1046B000051A03EE030A01EEA10A00F097F8D4ED03
:1046C000020A60EE800AC4ED020AD4ED030A60EE2D
:1046D000800AC4ED030AD4ED040A60EE800AC4ED3A
:1046E000040AD4ED050A20EE800A84ED050AFFF7DE
:1046F00099FE95ED060AFEF75BFF9FED128A124CBC
:1047000020EE080A84ED020AD5ED080A95ED070AA5
:10471000FEF7E4FF20EE080A84ED000AD5ED000A5A
:1047200095ED030AFEF7DAFF20EE080A84ED010A90
:10473000BDEC088B70BD000035FA8E3C40010020B6
:1047400008000020E12E6542C800002010B5244872
:10475000234C2DED028B503CB0F9160094ED121A4B
:1047600000EE100A9FED1D8AF8EEC00A80EE810A65
:1047700010EE100A01F0CCFD41EC100BFEF768FDC5
:104780009FED181B51EC100B53EC112B01F000FBAB
:1047900001F072F8E06094ED0E0AD4ED0A2AB0EE52
:1047A000483A02EE880A84ED0E0A94ED0F0AD4ED21
:1047B000081A01EE880A84ED0F0A94ED100A94EDB0
:1047C000092A02EE080A84ED100A2C3494EC030A3C
:1047D000BDEC028BBDE81040FFF782BE6F12833A3A
:1047E0001801002000000020DCA54C4010EE100A4B
:1047F000F6EE000A074960EE200AA1EB600000EE29
:10480000100A20EE801AF7EE080A41EE400A20EE68
:10481000800A7047DF59375F08B5FCF765FDFEF782
:10482000F7F9FDF777FF20480024016841F4800183
:1048300001600068224600F48000009021463A2082
:10484000FCF7B2FD3A20FCF7A1FD002211463B2007
:10485000FCF7AAFD3B20FCF799FD154813490160C0
:10486000144941604FF48051C0E90214891001617C
:104870000C21C0E90514C461FDF7A0FE08B172B6B1
:10488000FEE7FDF78DFFFDF727FFFDF7ABFF084BB8
:104890000748483BA3F1800202F1280100F012FC16
:1048A00000F0A6F8FCE7000030380240001001409C
:1048B00058030020A086010010B5164B164A0021AF
:1048C000FBF775FF18B1BDE81040FBF760BE12485A
:1048D00001681048A1F5007101390AD001290DD0F5
:1048E000022911D003290ED140880B4940BA40312A
:1048F00008E04088084940BA1C3103E04088064976
:1049000040BA2831488010BD4088034940BA34314C
:10491000F8E700006C0000204402002030B564205D
:104920002DED028B85B0FCF79FFB752000F052FA4D
:104930002C490024142208702B496846FBF71DFD02
:104940003220FCF791FB6D4605EB4400417815F8E9
:10495000140000F08FFA0A20FCF786FB641CE4B216
:104960000A2CF1D300F096F90520FCF77DFB1F4CD3
:10497000A4F15005B4F9140095ED121A00EE100AD6
:10498000F8EEC00A80EE810A10EE100A01F0C0FCB9
:1049900041EC100BFEF75CFC51EC100B00F06CFFCF
:1049A00008EE100AB4F9160095ED121A00EE100A7E
:1049B000F8EEC00A80EE810A10EE100A01F0A8FCA1
:1049C00041EC100BFEF744FC51EC100B00F054FFCF
:1049D00000EE900AB0EE480A00F06CFA05B0BDECAB
:1049E000028B30BD00000020086400081801002080
:1049F000F0B500202DED068B85B00E2269460090A3
:104A00000190029003903B2000F002FABDF80000F4
:104A1000974D40BA00B22880BDF8021049BA0FB2D3
:104A20006F80BDF8041049BA0EB2AE80BDF8061012
:104A300049BA09B2A981BDF808206B8B52BAD21AC3
:104A4000EA81BDF80A20AB8B52BAD21A2A8200EE54
:104A5000101ABDF80C20EB8B52BAB8EEC00AD21A6D
:104A60006A829FED841AA5F15004C0EE010AB3EEEC
:104A7000050A30EE800A84ED110A00EE100AB8EE45
:104A8000C00A9FED7DAA20EE0A0A10EE100A01F07E
:104A90003FFC9FED7A9B53EC192B01F079F900F064
:104AA000EBFE00EE100A84ED0B0AD4ED138AB4EE8F
:104AB000E80AF1EE10FA01DDC4ED0B8A94ED0B0A61
:104AC000B1EE688AB4EEC80AF1EE10FA01D284EDB4
:104AD0000B8A00EE107AB8EEC00A20EE0A0A10EE39
:104AE000100A01F015FC53EC192B01F051F900F0FC
:104AF000C3FE00EE100A84ED0C0AB4EEE80AF1EEF3
:104B000010FA01DDC4ED0C8A94ED0C0AB4EEC80A6B
:104B1000F1EE10FA01D284ED0C8A00EE106AB8EEC4
:104B2000C00A20EE0A0A10EE100A01F0F1FB53EC65
:104B3000192B01F02DF900F09FFE00EE100A84ED14
:104B40000D0AB4EEE80AF1EE10FA01DDC4ED0D8AAB
:104B500094ED0D0AB4EEC80AF1EE10FA01D284ED1C
:104B60000D8A94ED0B0A9FED47AAF0EE4A0AFBF777
:104B700011FD84ED0B0A94ED0C0AF0EE4A0AFBF7E6
:104B800009FD84ED0C0A94ED0D0AF0EE4A0AFBF7DC
:104B900001FD84ED0D0AB5F90E009FED3B8A00EE94
:104BA000100AF8EEC00A80EE880A10EE100A01F032
:104BB000AFFB53EC192B01F0EBF800F05DFE08EEB3
:104BC000900AC4ED088AB5F9100000EE100AF8EE5C
:104BD000C00A80EE880A10EE100A01F099FB53EC2F
:104BE000192B01F0D5F800F047FE6062B5F912000C
:104BF00000EE100AF8EEC00A80EE880A10EE100AE5
:104C000001F086FB53EC192B01F0C2F800F034FEE2
:104C1000F0EE4A0AB0EE680AA062FBF7BBFC84ED36
:104C2000080A94ED090AF0EE4A0AFBF7B3FC84ED9A
:104C3000090A94ED0A0AF0EE4A0AFBF7ABFCB5EE5E
:104C4000C00A84ED0A0AF1EE10FA01DCB1EE400A66
:104C500010EE100A0D49884203DA9FED0D0A84ED2B
:104C60000A0AFFF773FD05B0BDEC068BF0BD00002E
:104C7000180100205CEFA643000080398FC2F528A0
:104C80005C8FD23FCDCCCC3D6F128341CDCCCC3D9F
:104C90000000000030B58BB00024182104A8FBF7F9
:104CA0009EFB002000900190029003901420FCF7DE
:104CB000DBF90E2269463B2000F0AAF8BDF800009F
:104CC000049940BA01FA80F00490BDF802000599F9
:104CD00040BA01FA80F00590BDF80400069940BA88
:104CE00001FA80F00690BDF80800079940BA01FA71
:104CF00080F00790BDF80A00089940BA01FA80F0E8
:104D00000890BDF80C00099940BA01FA80F00990AA
:104D10000520FCF7A9F9641C642CCADB0499642003
:104D200091FBF0F425498C82059A92FBF0F2CA823D
:104D3000069B93FBF0F30B83079D95FBF0F54D83EA
:104D4000089D95FBF0F58D83099D95FBF0F0C883D8
:104D500014FB04F012FB020013FB030000F0EDFF54
:104D600041EC100BFEF7ACFE51EC100B00F084FD93
:104D700000EE100A1148DFED120A5038114980ED9B
:104D8000120A20EE200A80ED130A10EE100A0844E1
:104D90000D4988420CD3BFF34F8F0C4801680C4A71
:104DA00001F4E06111430160BFF34F8F00BFFDE7E5
:104DB0001420FCF759F90BB030BD00001801002099
:104DC00000008039AE47A1C086EB31000CED00E059
:104DD0000400FA0570B50C4D044600224021284617
:104DE000FCF76EFA44F08000084CA070FDF762FEFC
:104DF000E070A078FDF75EFEE070012240212846B9
:104E0000FCF75EFAE07870BD00140240000000205C
:104E10002DE9F047DFF8549017460E46044600226D
:104E200040214846FCF74CFADFF8448044F080000B
:104E3000454688F80200FDF73DFEE87000250AE0CF
:104E400044F0800088F80200FDF734FE641C06F888
:104E5000010BE4B26D1CBD42F2DB01224021484649
:104E6000FCF72EFA0020BDE8F08700000014024095
:104E70000000002070B50D4E0D4604460022402172
:104E80003046FCF71DFA04F07F00094CA070FDF7D6
:104E900011FEE0702846A570FDF70CFEE0700122BF
:104EA00040213046FCF70CFA002070BD001402408F
:104EB0000000002010B52DED048BF0EE608AFEEEB0
:104EC000000A20EE208A18EE100A01F021FA41ECC7
:104ED000100BFEF72DFD51EC100B00F0CDFCB6EEE3
:104EE000000A09EE900A68EE808A18EE900A01F036
:104EF0000FFA41EC100BFEF71BFD51EC100B00F00C
:104F0000BBFC09EE100A18EE100A01F001FA41ECA0
:104F1000100BFEF771FD51EC100B00F0ADFC08EE2C
:104F2000100A18EE900A01F0F3F941EC100BFEF7AD
:104F300063FD51EC100B00F09FFC00EE100A29EE0F
:104F4000892A29EE081A69EE800A60EE081A22EE14
:104F5000020A154C04F10C0000EEA00A84ED022AAE
:104F6000C0EC030A01EE010A01EEA10AFFF73EFCC4
:104F7000D4ED020A60EE800AC4ED020AD4ED030A01
:104F800060EE800AC4ED030AD4ED040A60EE800AE4
:104F9000C4ED040AD4ED050A20EE800A84ED050A6A
:104FA000BDEC048B10BD0000080000200148FFF795
:104FB000FDB900009400002070B58AB00446DDE918
:104FC0000E50160A8DF818608DF819201A0A8DF8FF
:104FD0001A202A0A8DF81C20009100218DF81D50FE
:104FE000020A8DF81E208DF81F008DF81B30082056
:104FF00001910391029104908DF814102046FBF763
:1050000050FC0028FAD008AB06AA69462046FBF7F8
:10501000E9FA0AB070BD00B52DED048B83B041EC08
:10502000190B00F0BFFF41EC180B18EE100A18EE38
:10503000901A8DED008B002818BF0120084320F046
:105040000040C0F17F6000F1E040C00F14D019EEC5
:10505000101A19EE900A8DED009B002918BF01214E
:10506000084320F00040C0F17F6000F1E040C00F35
:1050700004BF0120FBF7E2F951EC180B03B0BDECC3
:10508000048B00BD10B500EE100A2DED028BB1EEC1
:10509000C08A18EE100A20F00040C0F1FF40C00F97
:1050A0000AD010EE100A20F00040C0F1FF40C00FFF
:1050B00004BF0120FBF7C2F918EE100ABDEC028B09
:1050C00010BD0000F0B500242DED048B8BB005461B
:1050D0000120CDE90640089000941E461746019431
:1050E000029403940594694610460494FBF7D8FA99
:1050F0003846FBF7B9FD02213846FBF761FA142266
:105100003D492846FDF789F89FED3D8A9FED3B9A82
:10511000DFED3C8ADFED3C9AF0EE492AB0EE482AFA
:10512000F0EE481AB0EE681AF3EE030AB0EE690A20
:105130003648FDF70DFC3548F0EE492AB0EE482A16
:10514000F0EE481AB0EE681AF3EE030AB0EE690A00
:105150002030FDF7FDFB2D48F0EE492AB0EE482A3D
:10516000F0EE481AB0EE681AF3EE030AB0EE690AE0
:105170004030FDF7EDFB2548F0EE492AB0EE482A15
:10518000F0EE481AB0EE681AF3EE030AB0EE690AC0
:105190006030FDF7DDFBF0EE481A9FED1D2A9FED14
:1051A0001D8A1A48F0EE422AB0EE681AF0EE480A5C
:1051B0009FED190A8030FDF7CBFB3046FCF79EFED1
:1051C000FFF7ACFB11483438002180ED008A80EDF8
:1051D000018A80ED028AC46080ED048A44618461A2
:1051E00000EB8102491C82ED088A0529F8DD0BB02D
:1051F000BDEC048BF0BD00009400002000409C45F5
:1052000000409C460000C84200007042A4010020FB
:105210000000E14400000000000020422DE9F74FAB
:10522000FF482DED0C8B84B0017A00297ED0427AA4
:10523000002A7BD0DFF8ECB3DFF8ECA3FB4C0126AF
:1052400080464FF00009ABF13405012913D1C4E9C0
:105250000569CBF8009000234F46CDF800901A4620
:105260004902CDF804901298FFF7A6FE9AED010AC4
:1052700084ED040A2F6098F808009FEDEDAB9FEDD8
:10528000EEBBB0EE008A9FEDEE9B03287ED1C4F802
:1052900018900220CBF800906061B8F906104A46D9
:1052A0004900A1F5006100EE101AB8EEC00A84EDC5
:1052B000010AB8F904104900A1F5006100EE101AC6
:1052C000B8EEC00A84ED000AB8F900104800A0F555
:1052D000006000EE100A0020B8EEC00A84ED020A59
:1052E0006A60A1F58062002A03DD4FF00100E660EC
:1052F00003E003DA4FF0FF30E0606E60B1F5806FDD
:1053000004D1C4F80C900120C5F8049000EE100AF6
:1053100094ED041AC548B8EEC00A5746DAED010A02
:10532000B43021EE000AFDF721FB00E02CE100F093
:1053300004FD9FEDC51B53EC112B00F029FD9FEDE3
:10534000C41B53EC112B00F023FD00F095FAA06074
:1053500094ED040AD7ED010A30EE600ABDEEC00AF2
:1053600010EE100A286300F0E8FC53EC1A2B00F052
:105370000FFD53EC1B2B00F059FB41EC100BFEF71B
:105380003BFBB0EE40CAF0EE60CA00E0F6E06068B9
:1053900000F0BEFF53EC1C2B00F0FAFC41EC1D0B9F
:1053A000286B00F0CAFC53EC1A2B00F0F1FC53EC14
:1053B0001B2B00F03BFB41EC100BFEF7B9FAB0EEF3
:1053C00040CAF0EE60CA206800F0A2FF53EC1C2B2C
:1053D00000F0DEFC53EC1D2B00F0B0FE00F07EFC74
:1053E0000746286B00F0A9FC53EC1A2B00F0D0FC08
:1053F00053EC1B2B00F01AFB41EC100BFEF798FA54
:10540000B0EE40CAF0EE60CA606800F081FF53EC75
:105410001C2B00F0BDFC41EC1C0B286B00F08DFC3C
:1054200053EC1A2B00F0B4FC53EC1B2B00F0FEFAEB
:1054300041EC100BFEF7E0FAB0EE40DAF0EE60DA85
:10544000206800F065FF53EC1D2B00F0A1FC53EC2D
:105450001C2B00F043FA00F041FC391A00EE101A40
:10546000C11B3844F8EEC00A94ED020A70EE800ABF
:10547000C4ED090A00EE901AF8EEE00A70EE800A18
:10548000C4ED0A0A00EE900A4042F8EEE00A70EE1F
:10549000800AC4ED0B0A00EE900A6F48F8EEE00AAD
:1054A00030EE800A84ED0C0AB0F9020020EE080A02
:1054B00000EE900A5D48F8EEE00A9430FDF7C6F978
:1054C00000F03BFC53EC192B00F062FC00F006FCF2
:1054D00000B200906148B0F9020000EE100A534893
:1054E000F8EEC00A94ED0B0A743020EE080AFDF7BE
:1054F000ADF900F022FC53EC192B00F049FC00F050
:10550000EDFB07B25648B0F9020000EE100A47481A
:10551000F8EEC00A94ED0A0A543020EE080AFDF7AE
:1055200095F900F00AFC53EC192B00F031FC00F067
:10553000D5FB00B202904B48B0F9020000EE100A11
:105540003A48F8EEC00A94ED090A343020EE080A11
:10555000FDF77CF900F0F1FB53EC192B00F018FC7F
:1055600000F0BCFB02B200984FF40071CDE900706E
:10557000029B1298FFF720FDC5F8009098F80810DC
:105580004046022905D0A66104B0BDEC0C8BBDE8F5
:10559000FE8F0321CBF800606161C4F81890B0F968
:1055A00006204946A2F5806200EE102AB8EEC00A35
:1055B00084ED010AB0F90420A2F5806200EE102A01
:1055C000B8EEC00A84ED000AB8F80000B0F5806FAC
:1055D00002D06E60AE6000E0696094ED040ADAED1E
:1055E000010A30EE600ABDEEC00A10EE100A286310
:1055F00000F0A3FB53EC1A2B00F0CAFB53EC1B2B5F
:1056000000F014FA41EC100BFEF7F6F9B0EE40CAC8
:10561000F0EE60CA606800F07BFE53EC1C2B23E0C8
:10562000A800002064000020C800002070010020B5
:105630001F85EB51B81E0940000000000080664045
:105640009A9999999999B93F9A9999999999B9BFBC
:1056500000000000000024408402002078020020A6
:105660006C0200206002002000F092FB41EC1C0B59
:10567000286B00F062FB53EC1A2B00F089FB53EC13
:105680001B2B00F0D3F941EC100BFEF751F9B0EEF3
:1056900040DAF0EE60DA206800F03AFE53EC1D2BA1
:1056A00000F076FB53EC1C2B00F048FD00F0E4F812
:1056B00008EE900A286B00F040FB53EC1A2B00F028
:1056C00067FB53EC1B2B00F0B1F941EC100BFEF71C
:1056D0002FF9B0EE40CAF0EE60CA606800F018FE24
:1056E00053EC1C2B00F054FB41EC1C0B286B00F01E
:1056F00024FB53EC1A2B00F04BFB53EC1B2B00F05C
:1057000095F941EC100BFEF777F994ED00AAB0EE95
:1057100040BAF0EE60BA1AEE100A00F0F9FD53EC50
:105720001B2B00F035FB53EC1C2B00F0D7F800F0DE
:10573000A3F86AEE080A00EE100A4448C4ED000A15
:10574000D4ED010A38EEC01A60EE880AC4ED010AF1
:10575000DFED3D0AC4ED020A31EE201A84ED091A8C
:1057600030EE681A31EE201A84ED0A1A38EE801AEB
:1057700031EE201A84ED0B1AB1EE681A31EE400AB0
:1057800030EE200A84ED0C0AB0F9020000EE900A17
:105790002F48F8EEE00AFDF759F800F0CEFA53EC86
:1057A000192B00F0F5FA00F099FA0FFA80F9294860
:1057B000B0F9020000EE100A2548F8EEC00A94ED98
:1057C0000B0A2038FDF742F800F0B7FA53EC192B1A
:1057D00000F0DEFA00F082FA0FFA80F81E48B0F905
:1057E000020000EE100A1A48F8EEC00A94ED0A0A08
:1057F0004038FDF72BF800F0A0FA53EC192B00F01D
:10580000C7FA00F06BFA07B21448B0F9020000EED4
:10581000100A0F48F8EEC00A94ED090A6038FDF747
:1058200015F800F08AFA53EC192B00F0B1FA00F0E9
:1058300055FA02B23B464FF40071CDE90089129847
:10584000FFF7BAFB2E609FE60000FA4484020020B6
:1058500004020020780200206C0200206002002078
:1058600081F00041704780F00040704721F0004116
:10587000704720F00040704721F00042A2F16052D2
:10588000B2F5801F01F0004328BFD2F17F6C0BD925
:105890005FEA001C43EAC20242EB507018BF704737
:1058A00028BF20F001007047B2F5801FBCBF18462A
:1058B00070474FEA410C1CF5001F02D2084600F069
:1058C0009DBD70B500F00EFB00000089FFF7F6BF2C
:1058D0004FF00040A0F580007047000010B591EA3D
:1058E000030F48BF83F0004300F13084841A71EB4A
:1058F000030C05D2121943EB0C03001B61EB0C01E6
:10590000DFF824E14FEA1154A4EB135C1EEA430FC5
:1059100018BF9EEA445F73D023EA0E03DCF1200E29
:1059200021EA045143F4801332D322FA0CFE10EB27
:105930000E0023FA0CFE41EB0E01CCF1200E03FA0F
:105940000EFE10EB0E0051F10001B1F5801FCCF1FD
:10595000200E32D201EB045112FA0EF2BDE81040D3
:1059600058BF7047401C38BF5FEA420218BF7047FB
:10597000002814BF20F0010041F100014FEA41036B
:1059800013F5001F38BF7047A1F1C04100F0F8BA0D
:10599000012A43EB0302ACF1200CDCF11F0E32BFF5
:1059A0004FF0000E23FA0CF310EB030041EB04510F
:1059B000B4EB115FD0D0A1EB045101F5801149087F
:1059C0005FEA300001EB04510ED350F1000038BF04
:1059D00012FA0EFE08D1BDE81040C9E7401C38BFDE
:1059E0005FEA4202CAD1C3E7BDE810404FEA410373
:1059F00013F5001F38BF7047A1F1C04100F0C0BAD5
:105A00009EEA445F08D011EA5E0FBDE8104004BF73
:105A100001F0004100207047BDE8104070B500F073
:105A200061FA00BF64FBBE3E0000E0FF2DE9C0410B
:105A300030B4DFF8A0C23CEA111418BF3CEA1314DA
:105A400000F0EC8081EA03051CEA111444EAD574E5
:105A500018BF1CEA131500F0C780A4EB05044FF033
:105A6000004545EAC12145EAC32341EA505143EAD2
:105A7000525304F17F74994204F500344FEAC02078
:105A80004FEAC22208BF904200F09C804FEA1365A3
:105A90000FF24016765D4FEA134506FB05F7C7F196
:105AA000807706FB07F74FEAD737A7FB03687642F4
:105AB000C8F58038A7FB06CE38BFA8F1010807FB60
:105AC00008E64FF0000EA6FB028CE6FB03CEDCF1ED
:105AD000000CCEF1004E38BFAEF1010EA6FB0C5803
